{
  "contractName": "tokenSale",
  "abi": [
    {
      "inputs": [
        {
          "internalType": "contract xToken",
          "name": "_tokenContract",
          "type": "address"
        },
        {
          "internalType": "uint256",
          "name": "_tokenPrice",
          "type": "uint256"
        }
      ],
      "payable": false,
      "stateMutability": "nonpayable",
      "type": "constructor"
    },
    {
      "constant": true,
      "inputs": [],
      "name": "tokenContract",
      "outputs": [
        {
          "internalType": "contract xToken",
          "name": "",
          "type": "address"
        }
      ],
      "payable": false,
      "stateMutability": "view",
      "type": "function"
    },
    {
      "constant": true,
      "inputs": [],
      "name": "tokenPrice",
      "outputs": [
        {
          "internalType": "uint256",
          "name": "",
          "type": "uint256"
        }
      ],
      "payable": false,
      "stateMutability": "view",
      "type": "function"
    }
  ],
  "bytecode": "0x608060405234801561001057600080fd5b506040516101373803806101378339818101604052604081101561003357600080fd5b508051602090910151600080546001600160a01b03199081163317909155600180546001600160a01b03909416939091169290921790915560025560bb8061007c6000396000f3fe6080604052348015600f57600080fd5b506004361060325760003560e01c806355a373d61460375780637ff9b596146059575b600080fd5b603d6071565b604080516001600160a01b039092168252519081900360200190f35b605f6080565b60408051918252519081900360200190f35b6001546001600160a01b031681565b6002548156fea265627a7a7231582097f0366c6e110e266df4477bb1c16698b7e23a7eb4a88b669ebe2ceb8d95d13864736f6c63430005100032",
  "source": "pragma solidity ^0.5.0;\r\nimport \"./xToken.sol\";\r\ncontract tokenSale{\r\n  address admin;\r\n  xToken public tokenContract;\r\n  uint256 public tokenPrice;\r\n\r\n  constructor(xToken _tokenContract, uint256 _tokenPrice) public{\r\n      admin = msg.sender;\r\n      tokenContract = _tokenContract;\r\n      tokenPrice = _tokenPrice;\r\n\r\n  }\r\n}\r\n",
  "sourcePath": "C:/Users/jjrab/Desktop/projects/XTokenSale/src/contracts/tokenSale.sol",
  "compiler": {
    "name": "solc",
    "version": "0.5.16+commit.9c3226ce.Emscripten.clang"
  },
  "schemaVersion": "3.2.3",
  "updatedAt": "2021-02-14T16:46:14.312Z",
  "networkType": "ethereum",
  "devdoc": {
    "methods": {}
  },
  "userdoc": {
    "methods": {}
  }
}