{
  "contractName": "tokenSale",
  "abi": [
    {
      "inputs": [
        {
          "internalType": "contract XToken",
          "name": "_tokenContract",
          "type": "address"
        },
        {
          "internalType": "uint256",
          "name": "_tokenPrice",
          "type": "uint256"
        }
      ],
      "payable": false,
      "stateMutability": "nonpayable",
      "type": "constructor"
    },
    {
      "anonymous": false,
      "inputs": [
        {
          "indexed": false,
          "internalType": "address",
          "name": "_buyer",
          "type": "address"
        },
        {
          "indexed": false,
          "internalType": "uint256",
          "name": "_amount",
          "type": "uint256"
        }
      ],
      "name": "SellEvent",
      "type": "event"
    },
    {
      "constant": true,
      "inputs": [],
      "name": "tokenContract",
      "outputs": [
        {
          "internalType": "contract XToken",
          "name": "",
          "type": "address"
        }
      ],
      "payable": false,
      "stateMutability": "view",
      "type": "function"
    },
    {
      "constant": true,
      "inputs": [],
      "name": "tokenPrice",
      "outputs": [
        {
          "internalType": "uint256",
          "name": "",
          "type": "uint256"
        }
      ],
      "payable": false,
      "stateMutability": "view",
      "type": "function"
    },
    {
      "constant": true,
      "inputs": [],
      "name": "tokensSold",
      "outputs": [
        {
          "internalType": "uint256",
          "name": "",
          "type": "uint256"
        }
      ],
      "payable": false,
      "stateMutability": "view",
      "type": "function"
    },
    {
      "constant": false,
      "inputs": [
        {
          "internalType": "uint256",
          "name": "_numberOfTokens",
          "type": "uint256"
        }
      ],
      "name": "buyToken",
      "outputs": [],
      "payable": true,
      "stateMutability": "payable",
      "type": "function"
    },
    {
      "constant": false,
      "inputs": [],
      "name": "endSale",
      "outputs": [],
      "payable": false,
      "stateMutability": "nonpayable",
      "type": "function"
    }
  ],
  "bytecode": "0x608060405234801561001057600080fd5b5060405161047a38038061047a8339818101604052604081101561003357600080fd5b508051602090910151600080546001600160a01b03199081163317909155600180546001600160a01b0390941693909116929092179091556002556103fd8061007d6000396000f3fe60806040526004361061004a5760003560e01c80632d296bf11461004f578063380d831b1461006e578063518ab2a81461008357806355a373d6146100aa5780637ff9b596146100db575b600080fd5b61006c6004803603602081101561006557600080fd5b50356100f0565b005b34801561007a57600080fd5b5061006c610256565b34801561008f57600080fd5b50610098610383565b60408051918252519081900360200190f35b3480156100b657600080fd5b506100bf610389565b604080516001600160a01b039092168252519081900360200190f35b3480156100e757600080fd5b50610098610398565b6100fc8160025461039e565b341461010757600080fd5b600154604080516370a0823160e01b8152306004820152905183926001600160a01b0316916370a08231916024808301926020929190829003018186803b15801561015157600080fd5b505afa158015610165573d6000803e3d6000fd5b505050506040513d602081101561017b57600080fd5b50511161018757600080fd5b6001546040805163a9059cbb60e01b81523360048201526024810184905290516001600160a01b039092169163a9059cbb916044808201926020929091908290030181600087803b1580156101db57600080fd5b505af11580156101ef573d6000803e3d6000fd5b505050506040513d602081101561020557600080fd5b505161021057600080fd5b6003805482019055604080513381526020810183905281517f4339cd61f5f94d0e7e30fd8375b2b50ada8ae52f2898b9ef3248959ce7eb19b6929181900390910190a150565b6000546001600160a01b0316331461026d57600080fd5b600154600054604080516370a0823160e01b815230600482015290516001600160a01b039384169363a9059cbb93169184916370a0823191602480820192602092909190829003018186803b1580156102c557600080fd5b505afa1580156102d9573d6000803e3d6000fd5b505050506040513d60208110156102ef57600080fd5b5051604080516001600160e01b031960e086901b1681526001600160a01b03909316600484015260248301919091525160448083019260209291908290030181600087803b15801561034057600080fd5b505af1158015610354573d6000803e3d6000fd5b505050506040513d602081101561036a57600080fd5b505161037557600080fd5b6000546001600160a01b0316ff5b60035481565b6001546001600160a01b031681565b60025481565b60008215806103b9575050818102818382816103b657fe5b04145b6103c257600080fd5b9291505056fea265627a7a72315820d113e7446d82e21eff16a97bf98089c3174cebd4f1f944b8060ec11a137ded2c64736f6c63430005100032",
  "source": "pragma solidity ^0.5.0;\r\nimport \"./xToken.sol\";\r\ncontract tokenSale{\r\n  address payable admin;\r\n  XToken public tokenContract;\r\n  uint256 public tokenPrice;\r\n  uint public tokensSold;\r\n\r\n  event SellEvent(\r\n      address _buyer,\r\n      uint _amount\r\n    );\r\n\r\n  constructor(XToken _tokenContract, uint256 _tokenPrice) public{\r\n      admin = msg.sender;\r\n      tokenContract = _tokenContract;\r\n      tokenPrice = _tokenPrice;\r\n  }\r\n  function multiply(uint a,uint b) internal pure returns (uint c){\r\n      require(a == 0 || (c = a * b) / a == b);\r\n  }\r\n\r\n  function buyToken(uint256 _numberOfTokens) public payable{\r\n      //Ensure buyer pays the correct price\r\n      require(msg.value == multiply(_numberOfTokens, tokenPrice));\r\n      //Ensure contract has enough tokens\r\n      require(tokenContract.balanceOf(address(this)) > _numberOfTokens);\r\n      //transfer tokens to buyer\r\n      require(tokenContract.transfer(msg.sender, _numberOfTokens));\r\n      //update number of tokens sold\r\n      tokensSold += _numberOfTokens ;\r\n      //emit sale event\r\n     emit SellEvent(msg.sender, _numberOfTokens);\r\n  }\r\n  //End token sale\r\n  function endSale() public {\r\n      require(msg.sender == admin);\r\n\r\n      //transfer remainiing tokens to admin\r\n      require(tokenContract.transfer(admin, tokenContract.balanceOf(address(this))));\r\n\r\n      //destroy contract after sale end\r\n      selfdestruct(admin);\r\n  }\r\n}\r\n",
  "sourcePath": "C:/Users/jjrab/Desktop/projects/XTokenSale/src/contracts/tokenSale.sol",
  "compiler": {
    "name": "solc",
    "version": "0.5.16+commit.9c3226ce.Emscripten.clang"
  },
  "schemaVersion": "3.2.3",
  "updatedAt": "2021-02-21T22:45:33.056Z",
  "networkType": "ethereum",
  "devdoc": {
    "methods": {}
  },
  "userdoc": {
    "methods": {}
  }
}