{
  "contractName": "XToken",
  "abi": [
    {
      "inputs": [
        {
          "internalType": "uint256",
          "name": "_initialSupply",
          "type": "uint256"
        }
      ],
      "payable": false,
      "stateMutability": "nonpayable",
      "type": "constructor"
    },
    {
      "anonymous": false,
      "inputs": [
        {
          "indexed": true,
          "internalType": "address",
          "name": "_owner",
          "type": "address"
        },
        {
          "indexed": true,
          "internalType": "address",
          "name": "_spender",
          "type": "address"
        },
        {
          "indexed": false,
          "internalType": "uint256",
          "name": "_value",
          "type": "uint256"
        }
      ],
      "name": "Approval",
      "type": "event"
    },
    {
      "anonymous": false,
      "inputs": [
        {
          "indexed": true,
          "internalType": "address",
          "name": "_from",
          "type": "address"
        },
        {
          "indexed": true,
          "internalType": "address",
          "name": "_to",
          "type": "address"
        },
        {
          "indexed": false,
          "internalType": "uint256",
          "name": "_value",
          "type": "uint256"
        }
      ],
      "name": "Transfer",
      "type": "event"
    },
    {
      "constant": true,
      "inputs": [
        {
          "internalType": "address",
          "name": "",
          "type": "address"
        },
        {
          "internalType": "address",
          "name": "",
          "type": "address"
        }
      ],
      "name": "allowance",
      "outputs": [
        {
          "internalType": "uint256",
          "name": "",
          "type": "uint256"
        }
      ],
      "payable": false,
      "stateMutability": "view",
      "type": "function"
    },
    {
      "constant": true,
      "inputs": [
        {
          "internalType": "address",
          "name": "",
          "type": "address"
        }
      ],
      "name": "balanceOf",
      "outputs": [
        {
          "internalType": "uint256",
          "name": "",
          "type": "uint256"
        }
      ],
      "payable": false,
      "stateMutability": "view",
      "type": "function"
    },
    {
      "constant": true,
      "inputs": [],
      "name": "name",
      "outputs": [
        {
          "internalType": "string",
          "name": "",
          "type": "string"
        }
      ],
      "payable": false,
      "stateMutability": "view",
      "type": "function"
    },
    {
      "constant": true,
      "inputs": [],
      "name": "symbol",
      "outputs": [
        {
          "internalType": "string",
          "name": "",
          "type": "string"
        }
      ],
      "payable": false,
      "stateMutability": "view",
      "type": "function"
    },
    {
      "constant": true,
      "inputs": [],
      "name": "totalSupply",
      "outputs": [
        {
          "internalType": "uint256",
          "name": "",
          "type": "uint256"
        }
      ],
      "payable": false,
      "stateMutability": "view",
      "type": "function"
    },
    {
      "constant": false,
      "inputs": [
        {
          "internalType": "address",
          "name": "_to",
          "type": "address"
        },
        {
          "internalType": "uint256",
          "name": "_value",
          "type": "uint256"
        }
      ],
      "name": "transfer",
      "outputs": [
        {
          "internalType": "bool",
          "name": "success",
          "type": "bool"
        }
      ],
      "payable": false,
      "stateMutability": "nonpayable",
      "type": "function"
    },
    {
      "constant": false,
      "inputs": [
        {
          "internalType": "address",
          "name": "_spender",
          "type": "address"
        },
        {
          "internalType": "uint256",
          "name": "_value",
          "type": "uint256"
        }
      ],
      "name": "approve",
      "outputs": [
        {
          "internalType": "bool",
          "name": "success",
          "type": "bool"
        }
      ],
      "payable": false,
      "stateMutability": "nonpayable",
      "type": "function"
    },
    {
      "constant": false,
      "inputs": [
        {
          "internalType": "address",
          "name": "_from",
          "type": "address"
        },
        {
          "internalType": "address",
          "name": "_to",
          "type": "address"
        },
        {
          "internalType": "uint256",
          "name": "_value",
          "type": "uint256"
        }
      ],
      "name": "TransferFrom",
      "outputs": [
        {
          "internalType": "bool",
          "name": "success",
          "type": "bool"
        }
      ],
      "payable": false,
      "stateMutability": "nonpayable",
      "type": "function"
    }
  ],
  "bytecode": "0x60c060405260066080819052653c2a37b5b2b760d11b60a0908152610027916001919061009e565b50604080518082019091526006808252652c2a27a5a2a760d11b60209092019182526100559160029161009e565b5034801561006257600080fd5b5060405161076c38038061076c8339818101604052602081101561008557600080fd5b5051600081815533815260036020526040902055610139565b828054600181600116156101000203166002900490600052602060002090601f016020900481019282601f106100df57805160ff191683800117855561010c565b8280016001018555821561010c579182015b8281111561010c5782518255916020019190600101906100f1565b5061011892915061011c565b5090565b61013691905b808211156101185760008155600101610122565b90565b610624806101486000396000f3fe608060405234801561001057600080fd5b50600436106100885760003560e01c806395d89b411161005b57806395d89b411461018a578063a9059cbb14610192578063c0d84ce5146101be578063dd62ed3e146101f457610088565b806306fdde031461008d578063095ea7b31461010a57806318160ddd1461014a57806370a0823114610164575b600080fd5b610095610222565b6040805160208082528351818301528351919283929083019185019080838360005b838110156100cf5781810151838201526020016100b7565b50505050905090810190601f1680156100fc5780820380516001836020036101000a031916815260200191505b509250505060405180910390f35b6101366004803603604081101561012057600080fd5b506001600160a01b0381351690602001356102af565b604080519115158252519081900360200190f35b610152610315565b60408051918252519081900360200190f35b6101526004803603602081101561017a57600080fd5b50356001600160a01b031661031b565b61009561032d565b610136600480360360408110156101a857600080fd5b506001600160a01b038135169060200135610385565b610136600480360360608110156101d457600080fd5b506001600160a01b03813581169160208101359091169060400135610441565b6101526004803603604081101561020a57600080fd5b506001600160a01b0381358116916020013516610584565b60018054604080516020600284861615610100026000190190941693909304601f810184900484028201840190925281815292918301828280156102a75780601f1061027c576101008083540402835291602001916102a7565b820191906000526020600020905b81548152906001019060200180831161028a57829003601f168201915b505050505081565b3360008181526004602090815260408083206001600160a01b038716808552908352818420869055815186815291519394909390927f8c5be1e5ebec7d5bd14f71427d1e84f3dd0314c0f7b2291e5b200ac8c7c3b925928290030190a350600192915050565b60005481565b60036020526000908152604090205481565b6002805460408051602060018416156101000260001901909316849004601f810184900484028201840190925281815292918301828280156102a75780601f1061027c576101008083540402835291602001916102a7565b336000908152600360205260408120548211156103d35760405162461bcd60e51b81526004018080602001828103825260258152602001806105cb6025913960400191505060405180910390fd5b336000818152600360209081526040808320805487900390556001600160a01b03871680845292819020805487019055805186815290519293927fddf252ad1be2c89b69c2b068fc378daa952ba7f163c4a11628f55a4df523b3ef929181900390910190a350600192915050565b6001600160a01b0383166000908152600360205260408120548211156104985760405162461bcd60e51b81526004018080602001828103825260258152602001806105cb6025913960400191505060405180910390fd5b6001600160a01b03841660009081526004602090815260408083203384529091529020548211156104fa5760405162461bcd60e51b81526004018080602001828103825260298152602001806105a26029913960400191505060405180910390fd5b6001600160a01b0380851660008181526003602090815260408083208054889003905593871680835284832080548801905583835260048252848320338452825291849020805487900390558351868152935191937fddf252ad1be2c89b69c2b068fc378daa952ba7f163c4a11628f55a4df523b3ef929081900390910190a35060019392505050565b60046020908152600092835260408084209091529082529020548156fe4e6f7420656e6f75676820746f6b656e7320746f207370656e642066726f6d20416c6c6f77616e6365696e73756666696369656e742062616c616e636520746f206d616b65207472616e73666572a265627a7a723158205133664b6a9ce9eea8d6fcf603aafcfe31d9a918292eec9fd8c1c6eae3c62a3e64736f6c63430005100032",
  "source": "pragma solidity ^0.5.0;\r\n\r\ncontract XToken{\r\n\r\n   uint public totalSupply;\r\n   string public name = \"xToken\";\r\n   string public symbol = \"XTOKEN\";\r\n\r\n   mapping(address => uint) public balanceOf;\r\n   mapping(address => mapping(address => uint256)) public allowance;\r\n\r\n   event Transfer(\r\n       address indexed _from,\r\n       address indexed _to,\r\n       uint256 _value\r\n   );\r\n\r\n    event Approval(\r\n       address indexed _owner,\r\n       address indexed _spender,\r\n       uint256 _value\r\n   );\r\n  constructor (uint _initialSupply) public {\r\n       totalSupply = _initialSupply;\r\n\r\n       //allocate the initial totalSupply\r\n       balanceOf[msg.sender] = _initialSupply;\r\n   }\r\n   function transfer(address _to, uint _value) public returns(bool success) {\r\n       require(balanceOf[msg.sender] >= _value, \"insufficient balance to make transfer\");\r\n\r\n       //transfer XTOKEN\r\n       balanceOf[msg.sender] -= _value;\r\n       balanceOf[_to] += _value;\r\n\r\n       //release transfer event\r\n       emit Transfer(msg.sender, _to, _value);\r\n       return true;\r\n   }\r\n\r\n   //approve\r\n   function approve(address _spender, uint256 _value) public returns(bool success) {\r\n       //Allowance\r\n       allowance[msg.sender][_spender] = _value;\r\n\r\n       emit Approval(msg.sender, _spender, _value);\r\n       return true;\r\n   }\r\n\r\n   function TransferFrom(address _from, address _to, uint _value) public returns(bool success){\r\n       require(_value <= balanceOf[_from], \"insufficient balance to make transfer\");\r\n       require(_value <= allowance[_from][msg.sender], \"Not enough tokens to spend from Allowance\");\r\n       balanceOf[_from] -= _value;\r\n       balanceOf[_to] += _value;\r\n       allowance[_from][msg.sender] -= _value;\r\n       emit Transfer(_from, _to, _value);\r\n\r\n       return true;\r\n\r\n   }\r\n\r\n\r\n}\r\n",
  "sourcePath": "C:\\Users\\jjrab\\Desktop\\projects\\XTokenSale\\src\\contracts\\xToken.sol",
  "compiler": {
    "name": "solc",
    "version": "0.5.16+commit.9c3226ce.Emscripten.clang"
  },
  "schemaVersion": "3.2.3",
  "updatedAt": "2021-02-21T22:45:33.051Z",
  "networkType": "ethereum",
  "devdoc": {
    "methods": {}
  },
  "userdoc": {
    "methods": {}
  }
}