{
  "contractName": "xToken",
  "abi": [
    {
      "inputs": [
        {
          "internalType": "uint256",
          "name": "_initialSupply",
          "type": "uint256"
        }
      ],
      "payable": false,
      "stateMutability": "nonpayable",
      "type": "constructor"
    },
    {
      "anonymous": false,
      "inputs": [
        {
          "indexed": true,
          "internalType": "address",
          "name": "_from",
          "type": "address"
        },
        {
          "indexed": true,
          "internalType": "address",
          "name": "_to",
          "type": "address"
        },
        {
          "indexed": false,
          "internalType": "uint256",
          "name": "_value",
          "type": "uint256"
        }
      ],
      "name": "Transfer",
      "type": "event"
    },
    {
      "constant": true,
      "inputs": [
        {
          "internalType": "address",
          "name": "",
          "type": "address"
        }
      ],
      "name": "balanceOf",
      "outputs": [
        {
          "internalType": "uint256",
          "name": "",
          "type": "uint256"
        }
      ],
      "payable": false,
      "stateMutability": "view",
      "type": "function"
    },
    {
      "constant": true,
      "inputs": [],
      "name": "name",
      "outputs": [
        {
          "internalType": "string",
          "name": "",
          "type": "string"
        }
      ],
      "payable": false,
      "stateMutability": "view",
      "type": "function"
    },
    {
      "constant": true,
      "inputs": [],
      "name": "symbol",
      "outputs": [
        {
          "internalType": "string",
          "name": "",
          "type": "string"
        }
      ],
      "payable": false,
      "stateMutability": "view",
      "type": "function"
    },
    {
      "constant": true,
      "inputs": [],
      "name": "totalSupply",
      "outputs": [
        {
          "internalType": "uint256",
          "name": "",
          "type": "uint256"
        }
      ],
      "payable": false,
      "stateMutability": "view",
      "type": "function"
    },
    {
      "constant": false,
      "inputs": [
        {
          "internalType": "address payable",
          "name": "_to",
          "type": "address"
        },
        {
          "internalType": "uint256",
          "name": "_value",
          "type": "uint256"
        }
      ],
      "name": "transfer",
      "outputs": [
        {
          "internalType": "bool",
          "name": "success",
          "type": "bool"
        }
      ],
      "payable": true,
      "stateMutability": "payable",
      "type": "function"
    },
    {
      "constant": false,
      "inputs": [
        {
          "internalType": "address",
          "name": "_spender",
          "type": "address"
        },
        {
          "internalType": "uint256",
          "name": "_value",
          "type": "uint256"
        }
      ],
      "name": "approve",
      "outputs": [
        {
          "internalType": "bool",
          "name": "success",
          "type": "bool"
        }
      ],
      "payable": false,
      "stateMutability": "nonpayable",
      "type": "function"
    }
  ],
  "bytecode": "0x60c060405260066080819052653c2a37b5b2b760d11b60a0908152610027916001919061009e565b50604080518082019091526006808252652c2a27a5a2a760d11b60209092019182526100559160029161009e565b5034801561006257600080fd5b506040516104d83803806104d88339818101604052602081101561008557600080fd5b5051600081815533815260036020526040902055610139565b828054600181600116156101000203166002900490600052602060002090601f016020900481019282601f106100df57805160ff191683800117855561010c565b8280016001018555821561010c579182015b8281111561010c5782518255916020019190600101906100f1565b5061011892915061011c565b5090565b61013691905b808211156101185760008155600101610122565b90565b610390806101486000396000f3fe6080604052600436106100555760003560e01c806306fdde031461005a578063095ea7b3146100e457806318160ddd1461013157806370a082311461015857806395d89b411461018b578063a9059cbb146101a0575b600080fd5b34801561006657600080fd5b5061006f6101cc565b6040805160208082528351818301528351919283929083019185019080838360005b838110156100a9578181015183820152602001610091565b50505050905090810190601f1680156100d65780820380516001836020036101000a031916815260200191505b509250505060405180910390f35b3480156100f057600080fd5b5061011d6004803603604081101561010757600080fd5b506001600160a01b038135169060200135610259565b604080519115158252519081900360200190f35b34801561013d57600080fd5b50610146610261565b60408051918252519081900360200190f35b34801561016457600080fd5b506101466004803603602081101561017b57600080fd5b50356001600160a01b0316610267565b34801561019757600080fd5b5061006f610279565b61011d600480360360408110156101b657600080fd5b506001600160a01b0381351690602001356102d1565b60018054604080516020600284861615610100026000190190941693909304601f810184900484028201840190925281815292918301828280156102515780601f1061022657610100808354040283529160200191610251565b820191906000526020600020905b81548152906001019060200180831161023457829003601f168201915b505050505081565b600192915050565b60005481565b60036020526000908152604090205481565b6002805460408051602060018416156101000260001901909316849004601f810184900484028201840190925281815292918301828280156102515780601f1061022657610100808354040283529160200191610251565b336000908152600360205260408120548211156102ed57600080fd5b336000818152600360209081526040808320805487900390556001600160a01b03871680845292819020805487019055805186815290519293927fddf252ad1be2c89b69c2b068fc378daa952ba7f163c4a11628f55a4df523b3ef929181900390910190a35060019291505056fea265627a7a723158209fec1d680e52176b510b2d1def7c0f8ab702c681ee3b5c3bdc1eff5928e23b1864736f6c63430005100032",
  "source": "pragma solidity ^0.5.0;\r\n\r\ncontract xToken{\r\n\r\n   uint public totalSupply;\r\n   string public name = \"xToken\";\r\n   string public symbol = \"XTOKEN\";\r\n\r\n   mapping(address => uint) public balanceOf;\r\n\r\n   event Transfer(\r\n       address indexed _from,\r\n       address indexed _to,\r\n       uint256 _value\r\n   );\r\n  constructor (uint _initialSupply) public {\r\n       totalSupply = _initialSupply;\r\n\r\n       //allocate the initial totalSupply\r\n       balanceOf[msg.sender] = _initialSupply;\r\n   }\r\n   function transfer(address payable _to, uint _value) public payable returns(bool success) {\r\n       require(balanceOf[msg.sender] >= _value);\r\n\r\n       //transfer XTOKEN\r\n       balanceOf[msg.sender] -= _value;\r\n       balanceOf[_to] += _value;\r\n\r\n       //release transfer event\r\n       emit Transfer(msg.sender, _to, _value);\r\n       return true;\r\n   }\r\n\r\n   //approve\r\n   function approve(address _spender, uint256 _value) public returns(bool success) {\r\n\r\n       return true;\r\n   }\r\n\r\n\r\n}\r\n",
  "sourcePath": "C:\\Users\\jjrab\\Desktop\\projects\\XTokenSale\\src\\contracts\\xToken.sol",
  "compiler": {
    "name": "solc",
    "version": "0.5.16+commit.9c3226ce.Emscripten.clang"
  },
  "schemaVersion": "3.2.3",
  "updatedAt": "2021-02-14T16:46:14.310Z",
  "networkType": "ethereum",
  "devdoc": {
    "methods": {}
  },
  "userdoc": {
    "methods": {}
  }
}